{
  "_format": "hh-sol-artifact-1",
  "contractName": "LazChain",
  "sourceName": "contracts/LazChain.sol",
  "abi": [
    {
      "inputs": [],
      "stateMutability": "nonpayable",
      "type": "constructor"
    },
    {
      "anonymous": false,
      "inputs": [
        {
          "indexed": true,
          "internalType": "bytes32",
          "name": "goalId",
          "type": "bytes32"
        },
        {
          "indexed": true,
          "internalType": "address",
          "name": "claimant",
          "type": "address"
        },
        {
          "indexed": false,
          "internalType": "uint256",
          "name": "amount",
          "type": "uint256"
        },
        {
          "indexed": false,
          "internalType": "bool",
          "name": "successful",
          "type": "bool"
        }
      ],
      "name": "GoalClaimed",
      "type": "event"
    },
    {
      "anonymous": false,
      "inputs": [
        {
          "indexed": true,
          "internalType": "bytes32",
          "name": "goalId",
          "type": "bytes32"
        },
        {
          "indexed": true,
          "internalType": "address",
          "name": "user",
          "type": "address"
        },
        {
          "indexed": false,
          "internalType": "uint256",
          "name": "amount",
          "type": "uint256"
        },
        {
          "indexed": false,
          "internalType": "uint256",
          "name": "deadline",
          "type": "uint256"
        },
        {
          "indexed": false,
          "internalType": "address",
          "name": "recipient",
          "type": "address"
        }
      ],
      "name": "GoalCommitted",
      "type": "event"
    },
    {
      "anonymous": false,
      "inputs": [
        {
          "indexed": true,
          "internalType": "bytes32",
          "name": "goalId",
          "type": "bytes32"
        },
        {
          "indexed": false,
          "internalType": "bool",
          "name": "byAI",
          "type": "bool"
        }
      ],
      "name": "GoalCompleted",
      "type": "event"
    },
    {
      "anonymous": false,
      "inputs": [
        {
          "indexed": true,
          "internalType": "address",
          "name": "previousOwner",
          "type": "address"
        },
        {
          "indexed": true,
          "internalType": "address",
          "name": "newOwner",
          "type": "address"
        }
      ],
      "name": "OwnershipTransferred",
      "type": "event"
    },
    {
      "inputs": [
        {
          "internalType": "bytes32",
          "name": "goalId",
          "type": "bytes32"
        }
      ],
      "name": "canClaim",
      "outputs": [
        {
          "internalType": "bool",
          "name": "claimable",
          "type": "bool"
        },
        {
          "internalType": "string",
          "name": "reason",
          "type": "string"
        }
      ],
      "stateMutability": "view",
      "type": "function"
    },
    {
      "inputs": [
        {
          "internalType": "bytes32",
          "name": "goalId",
          "type": "bytes32"
        }
      ],
      "name": "claim",
      "outputs": [],
      "stateMutability": "nonpayable",
      "type": "function"
    },
    {
      "inputs": [
        {
          "internalType": "bytes32",
          "name": "goalId",
          "type": "bytes32"
        },
        {
          "internalType": "uint256",
          "name": "deadline",
          "type": "uint256"
        },
        {
          "internalType": "address",
          "name": "recipient",
          "type": "address"
        }
      ],
      "name": "commitGoal",
      "outputs": [],
      "stateMutability": "payable",
      "type": "function"
    },
    {
      "inputs": [
        {
          "internalType": "address",
          "name": "to",
          "type": "address"
        },
        {
          "internalType": "uint256",
          "name": "amount",
          "type": "uint256"
        }
      ],
      "name": "emergencyRecover",
      "outputs": [],
      "stateMutability": "nonpayable",
      "type": "function"
    },
    {
      "inputs": [],
      "name": "getBalance",
      "outputs": [
        {
          "internalType": "uint256",
          "name": "balance",
          "type": "uint256"
        }
      ],
      "stateMutability": "view",
      "type": "function"
    },
    {
      "inputs": [
        {
          "internalType": "bytes32",
          "name": "goalId",
          "type": "bytes32"
        }
      ],
      "name": "getGoal",
      "outputs": [
        {
          "internalType": "address",
          "name": "user",
          "type": "address"
        },
        {
          "internalType": "uint256",
          "name": "amount",
          "type": "uint256"
        },
        {
          "internalType": "uint256",
          "name": "deadline",
          "type": "uint256"
        },
        {
          "internalType": "bool",
          "name": "completed",
          "type": "bool"
        },
        {
          "internalType": "bool",
          "name": "validatedByAI",
          "type": "bool"
        },
        {
          "internalType": "address",
          "name": "recipient",
          "type": "address"
        },
        {
          "internalType": "bool",
          "name": "claimed",
          "type": "bool"
        }
      ],
      "stateMutability": "view",
      "type": "function"
    },
    {
      "inputs": [
        {
          "internalType": "bytes32",
          "name": "",
          "type": "bytes32"
        }
      ],
      "name": "goalExists",
      "outputs": [
        {
          "internalType": "bool",
          "name": "",
          "type": "bool"
        }
      ],
      "stateMutability": "view",
      "type": "function"
    },
    {
      "inputs": [
        {
          "internalType": "bytes32",
          "name": "",
          "type": "bytes32"
        }
      ],
      "name": "goals",
      "outputs": [
        {
          "internalType": "address",
          "name": "user",
          "type": "address"
        },
        {
          "internalType": "uint256",
          "name": "amount",
          "type": "uint256"
        },
        {
          "internalType": "uint256",
          "name": "deadline",
          "type": "uint256"
        },
        {
          "internalType": "bool",
          "name": "completed",
          "type": "bool"
        },
        {
          "internalType": "bool",
          "name": "validatedByAI",
          "type": "bool"
        },
        {
          "internalType": "address",
          "name": "recipient",
          "type": "address"
        },
        {
          "internalType": "bool",
          "name": "claimed",
          "type": "bool"
        }
      ],
      "stateMutability": "view",
      "type": "function"
    },
    {
      "inputs": [
        {
          "internalType": "bytes32",
          "name": "goalId",
          "type": "bytes32"
        },
        {
          "internalType": "bool",
          "name": "byAI",
          "type": "bool"
        }
      ],
      "name": "markCompleted",
      "outputs": [],
      "stateMutability": "nonpayable",
      "type": "function"
    },
    {
      "inputs": [],
      "name": "owner",
      "outputs": [
        {
          "internalType": "address",
          "name": "",
          "type": "address"
        }
      ],
      "stateMutability": "view",
      "type": "function"
    },
    {
      "inputs": [
        {
          "internalType": "address",
          "name": "newOwner",
          "type": "address"
        }
      ],
      "name": "transferOwnership",
      "outputs": [],
      "stateMutability": "nonpayable",
      "type": "function"
    }
  ],
  "bytecode": "0x608060405234801561001057600080fd5b50600080546001600160a01b0319163390811782556040519091907f8be0079c531659141344cd1fd0a4f28419497f9722a3daafe3b4186f6b6457e0908290a361112c8061005f6000396000f3fe60806040526004361061009c5760003560e01c80638da5cb5b116100645780638da5cb5b146101ca5780639639011e14610202578063bd66528a14610222578063d1634b0614610242578063eaaa98fa14610282578063f2fde38b146102b057600080fd5b806312065fe0146100a15780634cf86a98146100c15780636333000614610127578063720d1760146101495780637546b272146101b7575b600080fd5b3480156100ad57600080fd5b506040514781526020015b60405180910390f35b3480156100cd57600080fd5b506100e16100dc366004610f3b565b6102d0565b604080516001600160a01b039889168152602081019790975286019490945291151560608501521515608084015290921660a082015290151560c082015260e0016100b8565b34801561013357600080fd5b50610147610142366004610f54565b61036e565b005b34801561015557600080fd5b506100e1610164366004610f3b565b600160208190526000918252604090912080549181015460028201546003909201546001600160a01b039384169391929160ff8083169261010081048216926201000082041691600160b01b9091041687565b6101476101c5366004610fa5565b610539565b3480156101d657600080fd5b506000546101ea906001600160a01b031681565b6040516001600160a01b0390911681526020016100b8565b34801561020e57600080fd5b5061014761021d366004610fda565b6107fa565b34801561022e57600080fd5b5061014761023d366004610f3b565b61097e565b34801561024e57600080fd5b5061027261025d366004610f3b565b60026020526000908152604090205460ff1681565b60405190151581526020016100b8565b34801561028e57600080fd5b506102a261029d366004610f3b565b610d2d565b6040516100b8929190611004565b3480156102bc57600080fd5b506101476102cb36600461105c565b610e5b565b60008181526002602052604081205481908190819081908190819060ff166103135760405162461bcd60e51b815260040161030a9061107e565b60405180910390fd5b5050506000948552505060016020819052604090932080549381015460028201546003909201546001600160a01b0395861696919592945060ff808216945061010082048116936201000083041692600160b01b9092041690565b6000546001600160a01b031633146103985760405162461bcd60e51b815260040161030a906110b5565b600082815260026020526040902054829060ff166103c85760405162461bcd60e51b815260040161030a9061107e565b6000838152600160205260409020600381015460ff161561042b5760405162461bcd60e51b815260206004820181905260248201527f4c617a436861696e3a20676f616c20616c726561647920636f6d706c65746564604482015260640161030a565b6003810154600160b01b900460ff16156104875760405162461bcd60e51b815260206004820152601e60248201527f4c617a436861696e3a20676f616c20616c726561647920636c61696d65640000604482015260640161030a565b80600201544211156104db5760405162461bcd60e51b815260206004820152601d60248201527f4c617a436861696e3a20646561646c696e652068617320706173736564000000604482015260640161030a565b6003810180548415156101000261ffff1990911617600117905560405184907f96c712065ba5fe99b773baec3720455b1cfecab2298b41ce62f0189b53511dd09061052b90861515815260200190565b60405180910390a250505050565b600034116105895760405162461bcd60e51b815260206004820181905260248201527f4c617a436861696e3a206d7573742073656e64206e6174697665204d65746973604482015260640161030a565b4282116105e95760405162461bcd60e51b815260206004820152602860248201527f4c617a436861696e3a20646561646c696e65206d75737420626520696e207468604482015267652066757475726560c01b606482015260840161030a565b6001600160a01b0381166106525760405162461bcd60e51b815260206004820152602a60248201527f4c617a436861696e3a20726563697069656e742063616e6e6f74206265207a65604482015269726f206164647265737360b01b606482015260840161030a565b60008381526002602052604090205460ff16156106b15760405162461bcd60e51b815260206004820181905260248201527f4c617a436861696e3a20676f616c20494420616c726561647920657869737473604482015260640161030a565b6040805160e08101825233808252346020808401828152848601888152600060608701818152608088018281526001600160a01b038b811660a08b0190815260c08b018581528f86526001808a528d87209c518d549085166001600160a01b0319909116178d5597518c89015595516002808d019190915593516003909b0180549351915196511515600160b01b0260ff60b01b199790931662010000029690961662010000600160b81b03199115156101000261ff00199c15159c909c1661ffff19909416939093179a909a179990991617979097179091559490915292849020805460ff1916909317909255915185917f6e82cc6140cfbf455e10a9f69da190cb5718399dd56f52af384f2f0f9fbff482916107ed91908790879092835260208301919091526001600160a01b0316604082015260600190565b60405180910390a3505050565b6000546001600160a01b031633146108245760405162461bcd60e51b815260040161030a906110b5565b6001600160a01b03821661087a5760405162461bcd60e51b815260206004820152601b60248201527f4c617a436861696e3a20696e76616c696420726563697069656e740000000000604482015260640161030a565b478111156108ca5760405162461bcd60e51b815260206004820152601e60248201527f4c617a436861696e3a20696e73756666696369656e742062616c616e63650000604482015260640161030a565b6000826001600160a01b03168260405160006040518083038185875af1925050503d8060008114610917576040519150601f19603f3d011682016040523d82523d6000602084013e61091c565b606091505b50509050806109795760405162461bcd60e51b815260206004820152602360248201527f4c617a436861696e3a20656d657267656e6379207265636f76657279206661696044820152621b195960ea1b606482015260840161030a565b505050565b600054600160a01b900460ff16156109d85760405162461bcd60e51b815260206004820152601860248201527f4c617a436861696e3a207265656e7472616e742063616c6c0000000000000000604482015260640161030a565b6000805460ff60a01b1916600160a01b17815581815260026020526040902054819060ff16610a195760405162461bcd60e51b815260040161030a9061107e565b600082815260016020526040902060028101544211610a845760405162461bcd60e51b815260206004820152602160248201527f4c617a436861696e3a20646561646c696e6520686173206e6f742070617373656044820152601960fa1b606482015260840161030a565b6003810154600160b01b900460ff1615610ae05760405162461bcd60e51b815260206004820152601f60248201527f4c617a436861696e3a2066756e647320616c726561647920636c61696d656400604482015260640161030a565b60038101805460ff60b01b198116600160b01b1790915560ff1615610c0557805460018201546040516000926001600160a01b031691908381818185875af1925050503d8060008114610b4f576040519150601f19603f3d011682016040523d82523d6000602084013e610b54565b606091505b5050905080610baf5760405162461bcd60e51b815260206004820152602160248201527f4c617a436861696e3a207472616e7366657220746f2075736572206661696c656044820152601960fa1b606482015260840161030a565b81546001808401546040805191825260208201929092526001600160a01b039092169186917f6c5050cb79a2006800de5e80f8e254674105affd72003f24f97a9c7aa055b543910160405180910390a350610d1b565b600381015460018201546040516000926201000090046001600160a01b031691908381818185875af1925050503d8060008114610c5e576040519150601f19603f3d011682016040523d82523d6000602084013e610c63565b606091505b5050905080610cc35760405162461bcd60e51b815260206004820152602660248201527f4c617a436861696e3a207472616e7366657220746f20726563697069656e742060448201526519985a5b195960d21b606482015260840161030a565b600382015460018301546040805191825260006020830152620100009092046001600160a01b03169186917f6c5050cb79a2006800de5e80f8e254674105affd72003f24f97a9c7aa055b543910160405180910390a3505b50506000805460ff60a01b1916905550565b60008181526002602052604081205460609060ff16610d7a57505060408051808201909152601381527211dbd85b08191bd95cc81b9bdd08195e1a5cdd606a1b6020820152600092909150565b60008381526001602052604090206003810154600160b01b900460ff1615610dd657600060405180604001604052806015815260200174119d5b991cc8185b1c9958591e4818db185a5b5959605a1b8152509250925050915091565b80600201544211610e235760006040518060400160405280601781526020017f446561646c696e6520686173206e6f74207061737365640000000000000000008152509250925050915091565b60016040518060400160405280601381526020017211dbd85b0818d85b8818994818db185a5b5959606a1b8152509250925050915091565b6000546001600160a01b03163314610e855760405162461bcd60e51b815260040161030a906110b5565b6001600160a01b038116610eeb5760405162461bcd60e51b815260206004820152602760248201527f4c617a436861696e3a206e6577206f776e657220697320746865207a65726f206044820152666164647265737360c81b606482015260840161030a565b600080546001600160a01b038381166001600160a01b0319831681178455604051919092169283917f8be0079c531659141344cd1fd0a4f28419497f9722a3daafe3b4186f6b6457e09190a35050565b600060208284031215610f4d57600080fd5b5035919050565b60008060408385031215610f6757600080fd5b8235915060208301358015158114610f7e57600080fd5b809150509250929050565b80356001600160a01b0381168114610fa057600080fd5b919050565b600080600060608486031215610fba57600080fd5b8335925060208401359150610fd160408501610f89565b90509250925092565b60008060408385031215610fed57600080fd5b610ff683610f89565b946020939093013593505050565b821515815260006020604081840152835180604085015260005b8181101561103a5785810183015185820160600152820161101e565b506000606082860101526060601f19601f830116850101925050509392505050565b60006020828403121561106e57600080fd5b61107782610f89565b9392505050565b6020808252601d908201527f4c617a436861696e3a20676f616c20646f6573206e6f74206578697374000000604082015260600190565b60208082526021908201527f4c617a436861696e3a2063616c6c6572206973206e6f7420746865206f776e656040820152603960f91b60608201526080019056fea2646970667358221220359c037311129ec9e2c4b25b78da69dea4c83d7cca0b7495fa58a585963b790b64736f6c63430008140033",
  "linkReferences": {},
  "deployedLinkReferences": {}
}